{
  "_format": "hh-sol-artifact-1",
  "contractName": "AetherixStaking",
  "sourceName": "contracts/Staking.sol",
  "abi": [
    {
      "inputs": [
        {
          "internalType": "address",
          "name": "_aetxAddress",
          "type": "address"
        },
        {
          "internalType": "address",
          "name": "_usdtAddress",
          "type": "address"
        }
      ],
      "stateMutability": "nonpayable",
      "type": "constructor"
    },
    {
      "anonymous": false,
      "inputs": [
        {
          "indexed": true,
          "internalType": "address",
          "name": "previousOwner",
          "type": "address"
        },
        {
          "indexed": true,
          "internalType": "address",
          "name": "newOwner",
          "type": "address"
        }
      ],
      "name": "OwnershipTransferred",
      "type": "event"
    },
    {
      "anonymous": false,
      "inputs": [
        {
          "indexed": true,
          "internalType": "address",
          "name": "user",
          "type": "address"
        },
        {
          "indexed": false,
          "internalType": "uint256",
          "name": "amount",
          "type": "uint256"
        }
      ],
      "name": "RewardClaimed",
      "type": "event"
    },
    {
      "anonymous": false,
      "inputs": [
        {
          "indexed": true,
          "internalType": "address",
          "name": "user",
          "type": "address"
        },
        {
          "indexed": false,
          "internalType": "uint256",
          "name": "amount",
          "type": "uint256"
        }
      ],
      "name": "Staked",
      "type": "event"
    },
    {
      "anonymous": false,
      "inputs": [
        {
          "indexed": true,
          "internalType": "address",
          "name": "user",
          "type": "address"
        },
        {
          "indexed": false,
          "internalType": "uint256",
          "name": "amount",
          "type": "uint256"
        }
      ],
      "name": "Withdrawn",
      "type": "event"
    },
    {
      "inputs": [],
      "name": "aetxToken",
      "outputs": [
        {
          "internalType": "contract IERC20",
          "name": "",
          "type": "address"
        }
      ],
      "stateMutability": "view",
      "type": "function"
    },
    {
      "inputs": [],
      "name": "claimRewards",
      "outputs": [],
      "stateMutability": "nonpayable",
      "type": "function"
    },
    {
      "inputs": [
        {
          "internalType": "address",
          "name": "",
          "type": "address"
        }
      ],
      "name": "lastClaimTime",
      "outputs": [
        {
          "internalType": "uint256",
          "name": "",
          "type": "uint256"
        }
      ],
      "stateMutability": "view",
      "type": "function"
    },
    {
      "inputs": [],
      "name": "myStake",
      "outputs": [
        {
          "internalType": "uint256",
          "name": "",
          "type": "uint256"
        }
      ],
      "stateMutability": "view",
      "type": "function"
    },
    {
      "inputs": [],
      "name": "owner",
      "outputs": [
        {
          "internalType": "address",
          "name": "",
          "type": "address"
        }
      ],
      "stateMutability": "view",
      "type": "function"
    },
    {
      "inputs": [
        {
          "internalType": "address",
          "name": "user",
          "type": "address"
        }
      ],
      "name": "pendingReward",
      "outputs": [
        {
          "internalType": "uint256",
          "name": "",
          "type": "uint256"
        }
      ],
      "stateMutability": "view",
      "type": "function"
    },
    {
      "inputs": [],
      "name": "renounceOwnership",
      "outputs": [],
      "stateMutability": "nonpayable",
      "type": "function"
    },
    {
      "inputs": [
        {
          "internalType": "uint256",
          "name": "amount",
          "type": "uint256"
        }
      ],
      "name": "stake",
      "outputs": [],
      "stateMutability": "nonpayable",
      "type": "function"
    },
    {
      "inputs": [
        {
          "internalType": "address",
          "name": "",
          "type": "address"
        }
      ],
      "name": "stakes",
      "outputs": [
        {
          "internalType": "uint256",
          "name": "",
          "type": "uint256"
        }
      ],
      "stateMutability": "view",
      "type": "function"
    },
    {
      "inputs": [
        {
          "internalType": "address",
          "name": "newOwner",
          "type": "address"
        }
      ],
      "name": "transferOwnership",
      "outputs": [],
      "stateMutability": "nonpayable",
      "type": "function"
    },
    {
      "inputs": [],
      "name": "usdtToken",
      "outputs": [
        {
          "internalType": "contract IERC20",
          "name": "",
          "type": "address"
        }
      ],
      "stateMutability": "view",
      "type": "function"
    },
    {
      "inputs": [
        {
          "internalType": "uint256",
          "name": "amount",
          "type": "uint256"
        }
      ],
      "name": "withdraw",
      "outputs": [],
      "stateMutability": "nonpayable",
      "type": "function"
    }
  ],
  "bytecode": "0x60c06040523480156200001157600080fd5b506040516200175b3803806200175b833981810160405281019062000037919062000241565b620000576200004b6200010b60201b60201c565b6200011360201b60201c565b8173ffffffffffffffffffffffffffffffffffffffff1660808173ffffffffffffffffffffffffffffffffffffffff16815250508073ffffffffffffffffffffffffffffffffffffffff1660a08173ffffffffffffffffffffffffffffffffffffffff168152505042600260003373ffffffffffffffffffffffffffffffffffffffff1673ffffffffffffffffffffffffffffffffffffffff16815260200190815260200160002081905550505062000288565b600033905090565b60008060009054906101000a900473ffffffffffffffffffffffffffffffffffffffff169050816000806101000a81548173ffffffffffffffffffffffffffffffffffffffff021916908373ffffffffffffffffffffffffffffffffffffffff1602179055508173ffffffffffffffffffffffffffffffffffffffff168173ffffffffffffffffffffffffffffffffffffffff167f8be0079c531659141344cd1fd0a4f28419497f9722a3daafe3b4186f6b6457e060405160405180910390a35050565b600080fd5b600073ffffffffffffffffffffffffffffffffffffffff82169050919050565b60006200020982620001dc565b9050919050565b6200021b81620001fc565b81146200022757600080fd5b50565b6000815190506200023b8162000210565b92915050565b600080604083850312156200025b576200025a620001d7565b5b60006200026b858286016200022a565b92505060206200027e858286016200022a565b9150509250929050565b60805160a051611498620002c36000396000818161077e0152610aba015260008181610367015281816105b401526107a201526114986000f3fe608060405234801561001057600080fd5b50600436106100b45760003560e01c8063a694fc3a11610071578063a694fc3a14610155578063a98ad46c14610171578063b188c28a1461018f578063b77cf9c6146101ad578063f2fde38b146101dd578063f40f0f52146101f9576100b4565b806316934fc4146100b95780632e1a7d4d146100e9578063372500ab14610105578063715018a61461010f5780638da5cb5b14610119578063955cdfb114610137575b600080fd5b6100d360048036038101906100ce9190610ddb565b610229565b6040516100e09190610e21565b60405180910390f35b61010360048036038101906100fe9190610e68565b610241565b005b61010d6104d7565b005b6101176104e2565b005b6101216104f6565b60405161012e9190610ea4565b60405180910390f35b61013f61051f565b60405161014c9190610e21565b60405180910390f35b61016f600480360381019061016a9190610e68565b610566565b005b61017961077c565b6040516101869190610f1e565b60405180910390f35b6101976107a0565b6040516101a49190610f1e565b60405180910390f35b6101c760048036038101906101c29190610ddb565b6107c4565b6040516101d49190610e21565b60405180910390f35b6101f760048036038101906101f29190610ddb565b6107dc565b005b610213600480360381019061020e9190610ddb565b61085f565b6040516102209190610e21565b60405180910390f35b60016020528060005260406000206000915090505481565b60008111610284576040517f08c379a000000000000000000000000000000000000000000000000000000000815260040161027b90610f96565b60405180910390fd5b61028d33610987565b80600160003373ffffffffffffffffffffffffffffffffffffffff1673ffffffffffffffffffffffffffffffffffffffff16815260200190815260200160002054101561030f576040517f08c379a000000000000000000000000000000000000000000000000000000000815260040161030690611002565b60405180910390fd5b80600160003373ffffffffffffffffffffffffffffffffffffffff1673ffffffffffffffffffffffffffffffffffffffff168152602001908152602001600020600082825461035e9190611051565b925050819055507f000000000000000000000000000000000000000000000000000000000000000073ffffffffffffffffffffffffffffffffffffffff1663a9059cbb33836040518363ffffffff1660e01b81526004016103c0929190611085565b6020604051808303816000875af11580156103df573d6000803e3d6000fd5b505050506040513d601f19601f8201168201806040525081019061040391906110e6565b610442576040517f08c379a00000000000000000000000000000000000000000000000000000000081526004016104399061115f565b60405180910390fd5b42600260003373ffffffffffffffffffffffffffffffffffffffff1673ffffffffffffffffffffffffffffffffffffffff168152602001908152602001600020819055503373ffffffffffffffffffffffffffffffffffffffff167f7084f5476618d8e60b11ef0d7d3f06914655adb8793e28ff7f018d4c76d505d5826040516104cc9190610e21565b60405180910390a250565b6104e033610987565b565b6104ea610c2e565b6104f46000610cac565b565b60008060009054906101000a900473ffffffffffffffffffffffffffffffffffffffff16905090565b6000600160003373ffffffffffffffffffffffffffffffffffffffff1673ffffffffffffffffffffffffffffffffffffffff16815260200190815260200160002054905090565b600081116105a9576040517f08c379a00000000000000000000000000000000000000000000000000000000081526004016105a090610f96565b60405180910390fd5b6105b233610987565b7f000000000000000000000000000000000000000000000000000000000000000073ffffffffffffffffffffffffffffffffffffffff166323b872dd3330846040518463ffffffff1660e01b815260040161060f9392919061117f565b6020604051808303816000875af115801561062e573d6000803e3d6000fd5b505050506040513d601f19601f8201168201806040525081019061065291906110e6565b610691576040517f08c379a000000000000000000000000000000000000000000000000000000000815260040161068890611202565b60405180910390fd5b80600160003373ffffffffffffffffffffffffffffffffffffffff1673ffffffffffffffffffffffffffffffffffffffff16815260200190815260200160002060008282546106e09190611222565b9250508190555042600260003373ffffffffffffffffffffffffffffffffffffffff1673ffffffffffffffffffffffffffffffffffffffff168152602001908152602001600020819055503373ffffffffffffffffffffffffffffffffffffffff167f9e71bc8eea02a63969f509818f2dafb9254532904319f9dbda79b67bd34a5f3d826040516107719190610e21565b60405180910390a250565b7f000000000000000000000000000000000000000000000000000000000000000081565b7f000000000000000000000000000000000000000000000000000000000000000081565b60026020528060005260406000206000915090505481565b6107e4610c2e565b600073ffffffffffffffffffffffffffffffffffffffff168173ffffffffffffffffffffffffffffffffffffffff1603610853576040517f08c379a000000000000000000000000000000000000000000000000000000000815260040161084a906112c8565b60405180910390fd5b61085c81610cac565b50565b600080600160008473ffffffffffffffffffffffffffffffffffffffff1673ffffffffffffffffffffffffffffffffffffffff16815260200190815260200160002054036108b05760009050610982565b6000600260008473ffffffffffffffffffffffffffffffffffffffff1673ffffffffffffffffffffffffffffffffffffffff16815260200190815260200160002054426108fd9190611051565b90506301e13380670de0b6b3a764000061091791906112e8565b8166b1a2bc2ec50000600160008773ffffffffffffffffffffffffffffffffffffffff1673ffffffffffffffffffffffffffffffffffffffff1681526020019081526020016000205461096a91906112e8565b61097491906112e8565b61097e9190611359565b9150505b919050565b6000600160008373ffffffffffffffffffffffffffffffffffffffff1673ffffffffffffffffffffffffffffffffffffffff168152602001908152602001600020540315610c2b576000600260008373ffffffffffffffffffffffffffffffffffffffff1673ffffffffffffffffffffffffffffffffffffffff1681526020019081526020016000205442610a1c9190611051565b905060008103610a2c5750610c2b565b60006301e13380670de0b6b3a7640000610a4691906112e8565b8266b1a2bc2ec50000600160008773ffffffffffffffffffffffffffffffffffffffff1673ffffffffffffffffffffffffffffffffffffffff16815260200190815260200160002054610a9991906112e8565b610aa391906112e8565b610aad9190611359565b90506000811115610be4577f000000000000000000000000000000000000000000000000000000000000000073ffffffffffffffffffffffffffffffffffffffff1663a9059cbb84836040518363ffffffff1660e01b8152600401610b13929190611085565b6020604051808303816000875af1158015610b32573d6000803e3d6000fd5b505050506040513d601f19601f82011682018060405250810190610b5691906110e6565b610b95576040517f08c379a0000000000000000000000000000000000000000000000000000000008152600401610b8c906113d6565b60405180910390fd5b8273ffffffffffffffffffffffffffffffffffffffff167f106f923f993c2149d49b4255ff723acafa1f2d94393f561d3eda32ae348f724182604051610bdb9190610e21565b60405180910390a25b42600260008573ffffffffffffffffffffffffffffffffffffffff1673ffffffffffffffffffffffffffffffffffffffff1681526020019081526020016000208190555050505b50565b610c36610d70565b73ffffffffffffffffffffffffffffffffffffffff16610c546104f6565b73ffffffffffffffffffffffffffffffffffffffff1614610caa576040517f08c379a0000000000000000000000000000000000000000000000000000000008152600401610ca190611442565b60405180910390fd5b565b60008060009054906101000a900473ffffffffffffffffffffffffffffffffffffffff169050816000806101000a81548173ffffffffffffffffffffffffffffffffffffffff021916908373ffffffffffffffffffffffffffffffffffffffff1602179055508173ffffffffffffffffffffffffffffffffffffffff168173ffffffffffffffffffffffffffffffffffffffff167f8be0079c531659141344cd1fd0a4f28419497f9722a3daafe3b4186f6b6457e060405160405180910390a35050565b600033905090565b600080fd5b600073ffffffffffffffffffffffffffffffffffffffff82169050919050565b6000610da882610d7d565b9050919050565b610db881610d9d565b8114610dc357600080fd5b50565b600081359050610dd581610daf565b92915050565b600060208284031215610df157610df0610d78565b5b6000610dff84828501610dc6565b91505092915050565b6000819050919050565b610e1b81610e08565b82525050565b6000602082019050610e366000830184610e12565b92915050565b610e4581610e08565b8114610e5057600080fd5b50565b600081359050610e6281610e3c565b92915050565b600060208284031215610e7e57610e7d610d78565b5b6000610e8c84828501610e53565b91505092915050565b610e9e81610d9d565b82525050565b6000602082019050610eb96000830184610e95565b92915050565b6000819050919050565b6000610ee4610edf610eda84610d7d565b610ebf565b610d7d565b9050919050565b6000610ef682610ec9565b9050919050565b6000610f0882610eeb565b9050919050565b610f1881610efd565b82525050565b6000602082019050610f336000830184610f0f565b92915050565b600082825260208201905092915050565b7f416d6f756e74206d757374206265203e20300000000000000000000000000000600082015250565b6000610f80601283610f39565b9150610f8b82610f4a565b602082019050919050565b60006020820190508181036000830152610faf81610f73565b9050919050565b7f4e6f7420656e6f756768207374616b6564000000000000000000000000000000600082015250565b6000610fec601183610f39565b9150610ff782610fb6565b602082019050919050565b6000602082019050818103600083015261101b81610fdf565b9050919050565b7f4e487b7100000000000000000000000000000000000000000000000000000000600052601160045260246000fd5b600061105c82610e08565b915061106783610e08565b925082820390508181111561107f5761107e611022565b5b92915050565b600060408201905061109a6000830185610e95565b6110a76020830184610e12565b9392505050565b60008115159050919050565b6110c3816110ae565b81146110ce57600080fd5b50565b6000815190506110e0816110ba565b92915050565b6000602082840312156110fc576110fb610d78565b5b600061110a848285016110d1565b91505092915050565b7f5769746864726177206661696c65640000000000000000000000000000000000600082015250565b6000611149600f83610f39565b915061115482611113565b602082019050919050565b600060208201905081810360008301526111788161113c565b9050919050565b60006060820190506111946000830186610e95565b6111a16020830185610e95565b6111ae6040830184610e12565b949350505050565b7f5374616b65206661696c65640000000000000000000000000000000000000000600082015250565b60006111ec600c83610f39565b91506111f7826111b6565b602082019050919050565b6000602082019050818103600083015261121b816111df565b9050919050565b600061122d82610e08565b915061123883610e08565b92508282019050808211156112505761124f611022565b5b92915050565b7f4f776e61626c653a206e6577206f776e657220697320746865207a65726f206160008201527f6464726573730000000000000000000000000000000000000000000000000000602082015250565b60006112b2602683610f39565b91506112bd82611256565b604082019050919050565b600060208201905081810360008301526112e1816112a5565b9050919050565b60006112f382610e08565b91506112fe83610e08565b925082820261130c81610e08565b9150828204841483151761132357611322611022565b5b5092915050565b7f4e487b7100000000000000000000000000000000000000000000000000000000600052601260045260246000fd5b600061136482610e08565b915061136f83610e08565b92508261137f5761137e61132a565b5b828204905092915050565b7f526577617264207472616e73666572206661696c656400000000000000000000600082015250565b60006113c0601683610f39565b91506113cb8261138a565b602082019050919050565b600060208201905081810360008301526113ef816113b3565b9050919050565b7f4f776e61626c653a2063616c6c6572206973206e6f7420746865206f776e6572600082015250565b600061142c602083610f39565b9150611437826113f6565b602082019050919050565b6000602082019050818103600083015261145b8161141f565b905091905056fea264697066735822122044a628c2f699fca8d7181159b9fef06bbd24d7623d64cd6c55fae6f1d1c6270564736f6c63430008140033",
  "linkReferences": {},
  "deployedLinkReferences": {}
}